{
  "contractName": "Contact",
  "abi": [
    {
      "anonymous": false,
      "inputs": [
        {
          "indexed": false,
          "internalType": "address",
          "name": "_contract",
          "type": "address"
        },
        {
          "indexed": false,
          "internalType": "address",
          "name": "_user",
          "type": "address"
        },
        {
          "indexed": false,
          "internalType": "string",
          "name": "Uname",
          "type": "string"
        },
        {
          "indexed": false,
          "internalType": "string",
          "name": "Uemail",
          "type": "string"
        },
        {
          "indexed": false,
          "internalType": "string",
          "name": "Umsg",
          "type": "string"
        }
      ],
      "name": "Data",
      "type": "event"
    },
    {
      "inputs": [
        {
          "internalType": "uint256",
          "name": "",
          "type": "uint256"
        }
      ],
      "name": "user",
      "outputs": [
        {
          "internalType": "address",
          "name": "add",
          "type": "address"
        },
        {
          "internalType": "string",
          "name": "Name",
          "type": "string"
        },
        {
          "internalType": "string",
          "name": "Email",
          "type": "string"
        },
        {
          "internalType": "string",
          "name": "Message",
          "type": "string"
        }
      ],
      "stateMutability": "view",
      "type": "function",
      "constant": true
    },
    {
      "inputs": [],
      "name": "userCounter",
      "outputs": [
        {
          "internalType": "uint256",
          "name": "",
          "type": "uint256"
        }
      ],
      "stateMutability": "view",
      "type": "function",
      "constant": true
    },
    {
      "inputs": [
        {
          "internalType": "address",
          "name": "",
          "type": "address"
        }
      ],
      "name": "users",
      "outputs": [
        {
          "internalType": "address",
          "name": "add",
          "type": "address"
        },
        {
          "internalType": "string",
          "name": "Name",
          "type": "string"
        },
        {
          "internalType": "string",
          "name": "Email",
          "type": "string"
        },
        {
          "internalType": "string",
          "name": "Message",
          "type": "string"
        }
      ],
      "stateMutability": "view",
      "type": "function",
      "constant": true
    },
    {
      "inputs": [
        {
          "internalType": "string",
          "name": "_name",
          "type": "string"
        },
        {
          "internalType": "string",
          "name": "_email",
          "type": "string"
        },
        {
          "internalType": "string",
          "name": "_msg",
          "type": "string"
        }
      ],
      "name": "setData",
      "outputs": [],
      "stateMutability": "nonpayable",
      "type": "function"
    },
    {
      "inputs": [],
      "name": "getData",
      "outputs": [
        {
          "components": [
            {
              "internalType": "address",
              "name": "add",
              "type": "address"
            },
            {
              "internalType": "string",
              "name": "Name",
              "type": "string"
            },
            {
              "internalType": "string",
              "name": "Email",
              "type": "string"
            },
            {
              "internalType": "string",
              "name": "Message",
              "type": "string"
            }
          ],
          "internalType": "struct Contact.User[]",
          "name": "",
          "type": "tuple[]"
        }
      ],
      "stateMutability": "view",
      "type": "function",
      "constant": true
    }
  ],
  "bytecode": "0x608060405234801561001057600080fd5b50611399806100206000396000f3fe608060405234801561001057600080fd5b50600436106100575760003560e01c8063280af7d31461005c5780633bc5de3014610078578063553275be14610096578063a87430ba146100c9578063f0c37a59146100fc575b600080fd5b61007660048036038101906100719190610d7f565b61011a565b005b6100806105d0565b60405161008d919061109a565b60405180910390f35b6100b060048036038101906100ab9190610e16565b61083b565b6040516100c09493929190611040565b60405180910390f35b6100e360048036038101906100de9190610d56565b610a33565b6040516100f39493929190611040565b60405180910390f35b610104610c1b565b60405161011191906110bc565b60405180910390f35b60008081548092919061012c9061124e565b91905055506000600160003373ffffffffffffffffffffffffffffffffffffffff1673ffffffffffffffffffffffffffffffffffffffff1681526020019081526020016000206040518060800160405290816000820160009054906101000a900473ffffffffffffffffffffffffffffffffffffffff1673ffffffffffffffffffffffffffffffffffffffff1673ffffffffffffffffffffffffffffffffffffffff1681526020016001820180546101e39061121c565b80601f016020809104026020016040519081016040528092919081815260200182805461020f9061121c565b801561025c5780601f106102315761010080835404028352916020019161025c565b820191906000526020600020905b81548152906001019060200180831161023f57829003601f168201915b505050505081526020016002820180546102759061121c565b80601f01602080910402602001604051908101604052809291908181526020018280546102a19061121c565b80156102ee5780601f106102c3576101008083540402835291602001916102ee565b820191906000526020600020905b8154815290600101906020018083116102d157829003601f168201915b505050505081526020016003820180546103079061121c565b80601f01602080910402602001604051908101604052809291908181526020018280546103339061121c565b80156103805780601f1061035557610100808354040283529160200191610380565b820191906000526020600020905b81548152906001019060200180831161036357829003601f168201915b505050505081525050905033816000019073ffffffffffffffffffffffffffffffffffffffff16908173ffffffffffffffffffffffffffffffffffffffff1681525050838160200181905250828160400181905250818160600181905250600281908060018154018082558091505060019003906000526020600020906004020160009091909190915060008201518160000160006101000a81548173ffffffffffffffffffffffffffffffffffffffff021916908373ffffffffffffffffffffffffffffffffffffffff160217905550602082015181600101908051906020019061046d929190610c21565b50604082015181600201908051906020019061048a929190610c21565b5060608201518160030190805190602001906104a7929190610c21565b5050507f849213b32f661e94c8dbd38aed316a657d95c78f9137d8c130ea8c303a1b2a9c30338686866040516104e1959493929190610fd8565b60405180910390a180600160003373ffffffffffffffffffffffffffffffffffffffff1673ffffffffffffffffffffffffffffffffffffffff16815260200190815260200160002060008201518160000160006101000a81548173ffffffffffffffffffffffffffffffffffffffff021916908373ffffffffffffffffffffffffffffffffffffffff160217905550602082015181600101908051906020019061058c929190610c21565b5060408201518160020190805190602001906105a9929190610c21565b5060608201518160030190805190602001906105c6929190610c21565b5090505050505050565b60606002805480602002602001604051908101604052809291908181526020016000905b8282101561083257838290600052602060002090600402016040518060800160405290816000820160009054906101000a900473ffffffffffffffffffffffffffffffffffffffff1673ffffffffffffffffffffffffffffffffffffffff1673ffffffffffffffffffffffffffffffffffffffff16815260200160018201805461067d9061121c565b80601f01602080910402602001604051908101604052809291908181526020018280546106a99061121c565b80156106f65780601f106106cb576101008083540402835291602001916106f6565b820191906000526020600020905b8154815290600101906020018083116106d957829003601f168201915b5050505050815260200160028201805461070f9061121c565b80601f016020809104026020016040519081016040528092919081815260200182805461073b9061121c565b80156107885780601f1061075d57610100808354040283529160200191610788565b820191906000526020600020905b81548152906001019060200180831161076b57829003601f168201915b505050505081526020016003820180546107a19061121c565b80601f01602080910402602001604051908101604052809291908181526020018280546107cd9061121c565b801561081a5780601f106107ef5761010080835404028352916020019161081a565b820191906000526020600020905b8154815290600101906020018083116107fd57829003601f168201915b505050505081525050815260200190600101906105f4565b50505050905090565b6002818154811061084b57600080fd5b90600052602060002090600402016000915090508060000160009054906101000a900473ffffffffffffffffffffffffffffffffffffffff16908060010180546108949061121c565b80601f01602080910402602001604051908101604052809291908181526020018280546108c09061121c565b801561090d5780601f106108e25761010080835404028352916020019161090d565b820191906000526020600020905b8154815290600101906020018083116108f057829003601f168201915b5050505050908060020180546109229061121c565b80601f016020809104026020016040519081016040528092919081815260200182805461094e9061121c565b801561099b5780601f106109705761010080835404028352916020019161099b565b820191906000526020600020905b81548152906001019060200180831161097e57829003601f168201915b5050505050908060030180546109b09061121c565b80601f01602080910402602001604051908101604052809291908181526020018280546109dc9061121c565b8015610a295780601f106109fe57610100808354040283529160200191610a29565b820191906000526020600020905b815481529060010190602001808311610a0c57829003601f168201915b5050505050905084565b60016020528060005260406000206000915090508060000160009054906101000a900473ffffffffffffffffffffffffffffffffffffffff1690806001018054610a7c9061121c565b80601f0160208091040260200160405190810160405280929190818152602001828054610aa89061121c565b8015610af55780601f10610aca57610100808354040283529160200191610af5565b820191906000526020600020905b815481529060010190602001808311610ad857829003601f168201915b505050505090806002018054610b0a9061121c565b80601f0160208091040260200160405190810160405280929190818152602001828054610b369061121c565b8015610b835780601f10610b5857610100808354040283529160200191610b83565b820191906000526020600020905b815481529060010190602001808311610b6657829003601f168201915b505050505090806003018054610b989061121c565b80601f0160208091040260200160405190810160405280929190818152602001828054610bc49061121c565b8015610c115780601f10610be657610100808354040283529160200191610c11565b820191906000526020600020905b815481529060010190602001808311610bf457829003601f168201915b5050505050905084565b60005481565b828054610c2d9061121c565b90600052602060002090601f016020900481019282610c4f5760008555610c96565b82601f10610c6857805160ff1916838001178555610c96565b82800160010185558215610c96579182015b82811115610c95578251825591602001919060010190610c7a565b5b509050610ca39190610ca7565b5090565b5b80821115610cc0576000816000905550600101610ca8565b5090565b6000610cd7610cd284611108565b6110d7565b905082815260208101848484011115610cef57600080fd5b610cfa8482856111da565b509392505050565b600081359050610d1181611335565b92915050565b600082601f830112610d2857600080fd5b8135610d38848260208601610cc4565b91505092915050565b600081359050610d508161134c565b92915050565b600060208284031215610d6857600080fd5b6000610d7684828501610d02565b91505092915050565b600080600060608486031215610d9457600080fd5b600084013567ffffffffffffffff811115610dae57600080fd5b610dba86828701610d17565b935050602084013567ffffffffffffffff811115610dd757600080fd5b610de386828701610d17565b925050604084013567ffffffffffffffff811115610e0057600080fd5b610e0c86828701610d17565b9150509250925092565b600060208284031215610e2857600080fd5b6000610e3684828501610d41565b91505092915050565b6000610e4b8383610f58565b905092915050565b610e5c8161119e565b82525050565b610e6b8161119e565b82525050565b6000610e7c82611148565b610e86818561116b565b935083602082028501610e9885611138565b8060005b85811015610ed45784840389528151610eb58582610e3f565b9450610ec08361115e565b925060208a01995050600181019050610e9c565b50829750879550505050505092915050565b6000610ef182611153565b610efb818561117c565b9350610f0b8185602086016111e9565b610f1481611324565b840191505092915050565b6000610f2a82611153565b610f34818561118d565b9350610f448185602086016111e9565b610f4d81611324565b840191505092915050565b6000608083016000830151610f706000860182610e53565b5060208301518482036020860152610f888282610ee6565b91505060408301518482036040860152610fa28282610ee6565b91505060608301518482036060860152610fbc8282610ee6565b9150508091505092915050565b610fd2816111d0565b82525050565b600060a082019050610fed6000830188610e62565b610ffa6020830187610e62565b818103604083015261100c8186610f1f565b905081810360608301526110208185610f1f565b905081810360808301526110348184610f1f565b90509695505050505050565b60006080820190506110556000830187610e62565b81810360208301526110678186610f1f565b9050818103604083015261107b8185610f1f565b9050818103606083015261108f8184610f1f565b905095945050505050565b600060208201905081810360008301526110b48184610e71565b905092915050565b60006020820190506110d16000830184610fc9565b92915050565b6000604051905081810181811067ffffffffffffffff821117156110fe576110fd6112f5565b5b8060405250919050565b600067ffffffffffffffff821115611123576111226112f5565b5b601f19601f8301169050602081019050919050565b6000819050602082019050919050565b600081519050919050565b600081519050919050565b6000602082019050919050565b600082825260208201905092915050565b600082825260208201905092915050565b600082825260208201905092915050565b60006111a9826111b0565b9050919050565b600073ffffffffffffffffffffffffffffffffffffffff82169050919050565b6000819050919050565b82818337600083830152505050565b60005b838110156112075780820151818401526020810190506111ec565b83811115611216576000848401525b50505050565b6000600282049050600182168061123457607f821691505b60208210811415611248576112476112c6565b5b50919050565b6000611259826111d0565b91507fffffffffffffffffffffffffffffffffffffffffffffffffffffffffffffffff82141561128c5761128b611297565b5b600182019050919050565b7f4e487b7100000000000000000000000000000000000000000000000000000000600052601160045260246000fd5b7f4e487b7100000000000000000000000000000000000000000000000000000000600052602260045260246000fd5b7f4e487b7100000000000000000000000000000000000000000000000000000000600052604160045260246000fd5b6000601f19601f8301169050919050565b61133e8161119e565b811461134957600080fd5b50565b611355816111d0565b811461136057600080fd5b5056fea2646970667358221220dff978c57739f50022a276764a6c7ba3b4718c0e7d2f3e4adda5c8f11cc1aebf64736f6c63430008000033",
  "immutableReferences": {},
  "source": "pragma solidity 0.8.0;\r\n\r\n\r\n   contract Contact {\r\n       struct User{\r\n           address add;\r\n           string Name;\r\n           string Email;\r\n           string Message;\r\n       }\r\n    \r\n    uint256 public userCounter;\r\n    mapping(address=>User) public users;\r\n    User[] public user;\r\n\r\n    \r\n    event Data(address _contract,address _user,string Uname,string  Uemail,string  Umsg);\r\n      \r\n      function setData(string memory _name,string memory _email,string memory _msg) public {\r\n          userCounter++;\r\n          User memory u = users[msg.sender];\r\n          u.add = msg.sender;\r\n          u.Name = _name;\r\n          u.Email = _email;\r\n          u.Message =_msg;\r\n          user.push(u);\r\n          emit Data(address(this),msg.sender,_name,_email,_msg);\r\n          users[msg.sender] = u;\r\n          \r\n      }\r\n      function getData() public view returns(User[] memory){\r\n          return user;\r\n      }\r\n   }",
  "sourcePath": "C:/Users/Acer/Desktop/Frontend-Task/contract/contracts/Contact.sol",
  "compiler": {
    "name": "solc",
    "version": "0.8.0+commit.c7dfd78e.Emscripten.clang"
  },
  "schemaVersion": "3.4.0",
  "updatedAt": "2021-07-18T16:42:14.660Z",
  "networkType": "ethereum",
  "devdoc": {
    "kind": "dev",
    "methods": {},
    "version": 1
  },
  "userdoc": {
    "kind": "user",
    "methods": {},
    "version": 1
  }
}